:020000040800F2
:100000002005002025010008810100088101000869
:100010008101000881010008810100080000000042
:100020000000000000000000000000008101000846
:100030008101000800000000810100088101000822
:100040008101000881010008810100088101000888
:100050008101000881010008810100088101000878
:100060008101000881010008810100088101000868
:100070008101000881010008810100088101000858
:1000800081010008810100088101000800000000D2
:1000900000000000000000000000000081010008D6
:1000A0008101000881010008810100088101000828
:1000B000810100080508000881010008810100088D
:1000C0008101000881010008810100088101000808
:1000D00081010008810100088101000881010008F8
:1000E0008101000881010008810100080000000072
:1000F0000000000000000000000000000000000000
:1001000000000000000000000000000000000000EF
:1001100000000000000000004D03000881010008FD
:100120005FF808F180B582B000AF104B7B60104BD8
:100130003B6007E03B681A1D3A607A68111D7960E0
:1001400012681A603B680B4A9342F3D30A480B4982
:100150004FF000028842B8BF40F8042BFADB00F0F1
:1001600049F900F0EFFA0837BD4680BD24100008B9
:1001700000000020140000201400002020010020B6
:1001800080B400AFFEE700BF80B500AF444B1B78E2
:1001900003F00103002B25D0424B1B7803F0020330
:1001A000002B03D0282000F0FFF878E03E4800F054
:1001B0009BFB3D4B1B78002B11D1394B1B7823F057
:1001C0000503DAB2364B1A70354B1B7843F0120335
:1001D000DAB2334B1A70282000F0E6F85FE000F046
:1001E00065F85CE02E4B1B7803F01003002B47D022
:1001F0002C4B1B7803F00203002B03D0282000F0C7
:10020000D3F84CE0284800F06FFB254B1B7803F037
:100210000203002B16D0244B1B781B2B0AD1204B3A
:100220001B7823F00203DAB21D4B1A70042000F091
:10023000BBF834E01A4B1B7823F00C03DAB2184BEE
:100240001A7015E0184B1B78012B03D0164B1B7846
:10025000022B06D1124B1B7843F00803DAB2104B85
:100260001A700F4B1B7843F00603DAB20C4B1A706E
:100270000B4B1B7823F01003DAB2094B1A700CE019
:10028000094B1B781B01DAB2074B1A70044B1B7821
:1002900043F01003DAB2024B1A7000F007F880BD89
:1002A00016000020170000201800002080B500AFC5
:1002B000234B1B7803F00403002B03D0214B1022A7
:1002C0005A6102E01F4B10221A611E4B4FF48062EC
:1002D0005A611D4B1B78DBB25BB2002B03DA194B62
:1002E00008221A6102E0174B08225A61164B1B784C
:1002F00003F04003002B03D0124B04221A6102E0EA
:10030000104B04225A61104B1B7803F02003002B82
:1003100003D00C4B02221A6102E00A4B02225A61FE
:10032000094B1B7803F01003002B03D0054B01226F
:100330001A6102E0034B01225A6100F04FF880BDC0
:1003400016000020001001401800002080B500AF0A
:10035000124B1B8A9BB203F00103002B1CD00F4BE6
:1003600000221A820E4BDB6803F02003002B11D011
:100370000B4B20225A610B4B1B7803F00803002B18
:1003800004D04FF4FA6000F00FF805E0282000F0E8
:100390000BF801E0FFF7F8FE80BD00BF0010004041
:1003A000001001401600002080B483B000AF034667
:1003B000FB80094AFB889385074B01229A82064AF3
:1003C000054B1B889BB243F001039BB213800C3793
:1003D000BD465DF8047B70470010004080B500AF5B
:1003E000034B20221A610220FFF7DEFF80BD00BF11
:1003F0000010014080B500AF164A164B1B6843F051
:10040000010313601349134B5A68134B13404B609D
:10041000104A104B1B6823F0847323F4803313605D
:100420000C4A0C4B1B6823F480231360094A094BC8
:100430005B6823F4FE035360064B4FF41F029A607F
:10044000044B0022DA6200F00BF8044B4FF000621C
:100450009A6080BD001002400000FFF800ED00E04F
:1004600080B500AF00F002F880BD00BF80B483B05B
:1004700000AF00237B6000233B60304A2F4B1B689A
:1004800043F4803313602D4B1B6803F400333B604F
:100490007B6801337B603B68002B03D17B68B3F53D
:1004A000A06FF0D1254B1B6803F40033002B02D062
:1004B00001233B6001E000233B603B68012B37D107
:1004C0001E4A1E4B5B6853601C4A1C4B5B685360A2
:1004D0001A4A1A4B5B685360184A184B5B6823F43E
:1004E0007C135360154A154B5B6843F498135360B3
:1004F000124A124B1B6843F08073136000BF0F4B0E
:100500001B6803F00073002BF9D00C4A0B4B5B689F
:1005100023F003035360094A084B5B6843F002036E
:10052000536000BF054B5B6803F00C03082BF9D147
:100530000C37BD465DF8047B704700BF00100240D9
:1005400080B489B000AF786039600023FB6100237C
:100550003B610023BB610023FB6000237B61002320
:10056000BB603B68DB7803F00F03FB613B68DB7823
:1005700003F01003002B05D03B689B781A46FB69FB
:100580001343FB613B681B88DBB2002B44D07B68C4
:100590001B687B610023BB6138E0BB69012202FA62
:1005A00003F3FB603B681B881A46FB6813403B6102
:1005B0003A69FB689A4226D1BB699B00FB60FB68E5
:1005C0000F2202FA03F3BB60BB68DB437A69134076
:1005D0007B61FB68FA6902FA03F37A6913437B6172
:1005E0003B68DB78282B05D1BB6901229A407B68E8
:1005F0005A6108E03B68DB78482B04D1BB690122D3
:100600009A407B681A61BB690133BB61BB69072BE8
:10061000C3D97B687A691A603B681B88FF2B4AD96B
:100620007B685B687B610023BB613EE0BB6908338C
:100630001A4601239340FB603B681B881A46FB68FF
:1006400013403B613A69FB689A422BD1BB699B001E
:10065000FB60FB680F2202FA03F3BB60BB68DB435D
:100660007A6913407B61FB68FA6902FA03F37A69DD
:1006700013437B613B68DB78282B07D1BB690833C8
:100680001A46012303FA02F27B685A613B68DB7861
:10069000482B07D1BB6908331A46012303FA02F23B
:1006A0007B681A61BB690133BB61BB69072BBDD98C
:1006B0007B687A695A602437BD465DF8047B7047D1
:1006C00080B483B000AF0346FB71084997F9073047
:1006D0005B09FA7902F01F02012000FA02F241F8E8
:1006E00023200C37BD465DF8047B704700E100E035
:1006F00080B483B000AF03463960FB7197F90730CF
:10070000002B0BDA0D49FB7903F00F03043B3A6829
:10071000D2B21201D2B20B441A7609E0084997F915
:1007200007303A68D2B21201D2B20B4483F80023E8
:100730000C37BD465DF8047B704700BF00ED00E05C
:1007400000E100E080B500AF0020002100F0BCFA1D
:100750001D200121FFF7CCFF1D20FFF7B1FF254A27
:10076000244B9B6943F005039361234A224B1B688A
:1007700043F0300313601F4A1E4BDB6943F0020352
:10078000D3611E4A1D4B1B8B9BB243F001039BB2EE
:1007900013831A4A194B1B8B9BB243F030039BB255
:1007A0001383164A154B1B8C9BB223F002039BB29A
:1007B0001384124B45F6BF521A85104A0F4B1B8CFF
:1007C0009BB243F001039BB213840C4A0B4B9B89F1
:1007D0009BB243F002039BB29381084A074B1B88EC
:1007E0009BB243F001039BB21380054800F028FB45
:1007F000FEE700BF00100240000801400004004076
:10080000EC0E000880B500AF144A144B1B8A9BB253
:1008100023F001039BB21382104B9B8E9AB2104BB4
:100820001A800F4B1A880F4B1B88D31A9AB20E4BA3
:100830001A800B4B1A880B4B1A800020002100F005
:10084000A7FA0A4800F0FCFA074B1B88184600F08C
:100850000FFB074800F0F4FA80BD00BF0004004021
:100860001A0000201E0000201C000020F80E0008C6
:10087000040F000880B483B000AF0346FB71164B31
:100880001B7803F00103002B01D001231EE0134B62
:100890001B785A1CD1B2114A11701946104AFB79C3
:1008A00053540E4B1A780F4B1B789A4206D10A4BC1
:1008B0001B7843F00103DAB2074B1A70064B1B7822
:1008C00023F00203DAB2044B1A70002318460C37E7
:1008D000BD465DF8047B704717000020150000201E
:1008E000200000201400002080B483B000AF7860A6
:1008F000164B1B7803F00203002B01D002231FE0EC
:10090000134B1B785A1CD1B2114A11701A46114B65
:100910009A5C7B681A700E4B1A780F4B1B789A42C0
:1009200006D10A4B1B7843F00203DAB2074B1A7068
:10093000064B1B7823F00103DAB2044B1A70002334
:1009400018460C37BD465DF8047B70471700002041
:1009500014000020200000201500002080B489B081
:1009600000AF78600023FB610023BB6100237B6143
:1009700000233B610023FB604A4B5B6803F00C03E0
:10098000FB61FB69042B07D0082B09D0002B2FD16A
:100990007B68454A1A602FE07B68434A1A602BE067
:1009A000404B5B6803F47013BB613E4B5B6803F420
:1009B00080337B61BB699B0C0233BB617B69002B7D
:1009C00006D1BB69394A02FB03F27B681A6013E067
:1009D000344BDB6A03F00F030133FB60324AFB68E0
:1009E000B2FBF3F3BA6902FB03F27B681A6003E01F
:1009F0007B682D4A1A6000BF2A4B5B6803F0F00346
:100A0000FB61FB691B09FB61294AFB6913441B78E5
:100A1000DBB23B617B681A683B69DA407B685A60ED
:100A2000204B5B6803F4E063FB61FB691B0AFB611D
:100A30001F4AFB6913441B78DBB23B617B685A6831
:100A40003B69DA407B689A60164B5B6803F460533D
:100A5000FB61FB69DB0AFB61154AFB6913441B78E8
:100A6000DBB23B617B685A683B69DA407B68DA60DD
:100A70000C4B5B6803F44043FB61FB699B0BFB6120
:100A80000C4AFB6913441B78DBB23B617B68DA6874
:100A90003B69B2FBF3F27B681A612437BD465DF80F
:100AA000047B70470010024000127A0000093D00EC
:100AB000000000201000002080B483B000AF7860F8
:100AC0000B46FB70FB78002B06D00949084B9A694E
:100AD0007B6813438B6106E00549054B9A697B6887
:100AE000DB4313408B610C37BD465DF8047B7047D8
:100AF0000010024080B483B000AF78600B46FB70FA
:100B0000FB78002B06D00949084BDA697B68134350
:100B1000CB6106E00549054BDA697B68DB4313408E
:100B2000CB610C37BD465DF8047B70470010024076
:100B300080B483B000AF0346FB71084997F90730D2
:100B40005B09FA7902F01F02012000FA02F241F873
:100B500023200C37BD465DF8047B704700E100E0C0
:100B600080B586B000AF00F08BF80346FB75FB7DC7
:100B7000002B01D0FB7D75E03B461846FFF7EEFEEB
:100B800004200121FFF798FF10200121FFF794FFB7
:100B90004FF000500121FFF7ADFF10200121FFF7BA
:100BA000A9FF324810210022022300F071F8304AD8
:100BB0002F4B1B6843F0010313602D4B4FF48062F1
:100BC0009A602C4820211022022300F061F8294865
:100BD0004FF480611022022300F05AF825481021BA
:100BE0001022022300F054F822480121102202238F
:100BF00000F04EF81F4802211022022300F048F8AE
:100C00001C4804211022022300F042F81948082150
:100C10001022022300F03CF8174B00221A80164BDA
:100C200000229A80144A144B1B889BB243F08C0319
:100C30009BB21380104A3B681049A1FB03135B0C65
:100C40009BB213850C4B04229A850B4B00221A820F
:100C5000094B01229A82084B01229A813620FFF724
:100C600067FF002318461837BD4680BD00080140C5
:100C700000740040001001400010004083DE1B4360
:100C800080B400AF00231846BD465DF8047B704772
:100C900080B584B000AF7860084611461A46034616
:100CA0007B800B467B7013463B707B88BB817B78D7
:100CB000FB733B78BB7307F10C0378681946FFF7A9
:100CC0003FFC1037BD4680BD80B584B000AF034601
:100CD0000A46FB711346BB712A4B05221A702A4B38
:100CE00002221A70FFF73CFF0346FB73FB7B002BCD
:100CF00001D0FB7B41E0254B20225A61234B10227F
:100D00005A61224B4FF480625A6144F62060FFF72B
:100D10004BFB00BF302000F073F80346002BF9D1E5
:100D200000BF302000F06CF80346002BF9D100BF63
:100D3000302000F065F80346002BF9D100BF2020D9
:100D400000F05EF80346002BF9D100BF002000F050
:100D500057F80346002BF9D1282000F039F801207C
:100D600000F036F8FA79BB791343DBB243F00C0399
:100D7000DBB2184600F02CF8002318461037BD46A9
:100D800080BD00BF160000201700002000100140A9
:100D900080B584B000AF03460A46FB711346BB71B1
:100DA000FB79022B02D8BB79102B00D90DE0FB791F
:100DB0009B01DAB2BB791344FB73FB7B63F07F03C7
:100DC000FB73FB7B184600F003F81037BD4680BD6F
:100DD00080B582B000AF0346FB7100BF1B2000F05E
:100DE0000FF80346002BF9D100BFFB79184600F03D
:100DF00007F80346002BF8D10837BD4680BD00BF79
:100E000080B582B000AF0346FB71FB791846FFF74F
:100E100031FD034618460837BD4680BD80B582B017
:100E200000AF0346FB71FB79044AD35C1846FFF719
:100E300021FD034618460837BD4680BD0C0F00084B
:100E400080B582B000AF78600BE000BF7B681B7894
:100E50001846FFF7E3FF0346002BF7D17B68013309
:100E60007B607B681B78002BEFD10837BD4680BDC7
:100E7000B0B58AB000AF78601A4B07F10C041D467C
:100E80000FCD0FC495E8030020600434217007F1F2
:100E90000C0313337B627A68134B83FB02139910A4
:100EA000D317C91A0B469B000B445B00D11ACBB277
:100EB0003033DAB27B6A1A707B680B4A82FB03120A
:100EC0009210DB17D31A7B607B68002B00D103E004
:100ED0007B6A013B7B62DEE7786AFFF7B1FF283768
:100EE000BD46B0BD0C10000867666666D1F2E0F042
:100EF000F22E2E2E00000000CFE5F0E8EEE43A20BE
:100F0000000000006D73202020000000000102039B
:100F1000040506072020202020202020202020203B
:100F2000202020202020201B2020202020212223C0
:100F30002425262728292A2B2C2D2E2F30313233F9
:100F40003435363738393A3B3C3D3E3F40414243E9
:100F50004445464748494A4B4C4D4E4F50515253D9
:100F60005455565758595A5B5C5D5E5F60616263C9
:100F70006465666768696A6B6C6D6E6F70717273B9
:100F80007475767778797AD9D1DAE9FF2020202034
:100F9000202020202020202020E8E7CDD0D3D2CA56
:100FA000CBD5F4D7D87FEBF5CFDDEDDFF0F1F2F361
:100FB000DED4D6FDA2F7F8C8F9FAFBFCEFEE7B7C95
:100FC0007DECFECEB5CCEAC97EF6DBDC41A042A1C9
:100FD000E045A3A4A5A64BA74D484FA8504354A94C
:100FE000AA58E1ABACE2ADAEC4AFB0B161B2B3B43C
:100FF000E365B6B7B8B9BABBBCBD6FBE7063BF79A5
:10100000E478E5C0C1E6C2C3C4C5C6C730303030DD
:1010100030303030303030303030303030303030D0
:0410200000000000CC
:10102400000000000102030401020304060708098A
:0410340002040608A4
:0400000508000000EF
:00000001FF
